:100000000C9427060C944F060C944F060C944F0644
:100010000C94A3090C944F060C944F060C944F06B5
:100020000C944F060C94D3090C944F060C944F0675
:100030000C944F060C946D0A0C94A20A0C944F0673
:100040000C947F090C944F060C944F060C944F06A9
:100050000C944F0600140C141014131415141A14D5
:100060001714131400146B336D336F3373337333FE
:100070007133773375330000000046605D2C00005B
:10008000000046605D2C33046400E525E8030010A1
:100090006400C92F2C0100000000000000000000D7
:1000A000000000000000000000002ECA7E3BC24C91
:1000B000A40B0C497017000000007DC1C60E0000A3
:1000C00000007DC1C60E0000000048C58E1D000066
:1000D000000057C2D00E00000000C0D6651000001E
:1000E000000080D465100000000080D465102E044C
:1000F0006400E425E803D205640094112C01000695
:100100000800FF01010A01060900FF0302000206C0
:100110000A00FF00000A06060E00FF0302000506A3
:100120000D00FF02030004060C00FF03020003069B
:100130000B00FF04060007060700FF030200420150
:1001400000006F7074696F6E7300460003008813BF
:100150007017010032003200102700000000030079
:100160000000000080250000004B00000096000009
:1001700000E1000000C201000100010001000100D7
:100180000100B0040807520300005203B00408073E
:10019000E8030000E803D0079209D60600006C07C8
:1001A000E40C100ED007E40CB80B100E0410C409B8
:1001B000A60EAC0D740E6810B80B0A0F890C740EE5
:1001C000CC10B80B0A0F890C740EFE10B80B0A0F76
:1001D000890C40066C071405400678050100A00F45
:1001E000D007010001000100A00F01000100010083
:1001F0000400000102020202020304051F0B150B9A
:10020000100B0B0B060B010BFC0AF70AF20AED0AA6
:100210001A0BE90A49198E19771ACF1ADA1AE51A50
:10022000D81BD41B081CA91C4C1DB51C551D521DE8
:100230005C1D831D8A1DAD1DC71F971F9D1F0922B1
:10024000DA1A0B2207B008020044005D0201000028
:10025000001027AB08FF7F4900A702000000000044
:1002600000DF080400490022040100000001000032
:100270000000000000000000000000000008090A63
:100280000001A308020041005F02010000001027E6
:100290009B08020041006102010000001027930842
:1002A0000200410063020100000010278C080200D8
:1002B00041004F02010000007869840802004100FB
:1002C0005102010000007869DF080400490022049F
:1002D000010000000100000000000000000000001C
:1002E000000000001409820041005B0201000000D0
:1002F00030750F09820041008D0201000000881353
:100300000A09820041008F020100000088130509DC
:100310008200410091020100000088130009820060
:1003200041009302010000008813FB088200410095
:100330009502010000008813F60882004100970230
:10034000010000008813F008FF7F410075020000E3
:1003500000000000EA08FF7F410073020000000077
:100360000000DF0804004900220401000000010031
:10037000000000000000000000000000000006096E
:100380000A0B0C0D0E061F2021222324BE08B608DE
:10039000000064002C016400E803CC08C6080000DB
:1003A000D908D20800004909400934092809190967
:1003B00000003C0B320B240B00002E0AFF7F0200D2
:1003C0003405010000000B002B0A0F000300AF30C2
:1003D000FE7FCB2A0000270A0E8041005603010051
:1003E00000008813270A1000410056033200000065
:1003F00078691A0A0180410056030100B004D00751
:100400001A0A200041005603FF7F01007869230A81
:10041000048041006A030100000088131F0A0F8056
:10042000410058030100000088131F0A100041001A
:100430005803320000007869150A1F0045004E037A
:10044000FF7F6400F47E110A3F0040005203FF7FEB
:10045000010088130A0A1E8040005A03FF7F010032
:100460008813060A1F0040005403FF7F0100E803C1
:10047000FF091F8040005C03FF7F0100E803F509CE
:100480000C8048006C0301000300C800EC09010067
:100490004D006A03010000000100E7090002480066
:1004A0006C030100ECFF0000DB0900024B006E034F
:1004B000010001000A00D2091F004D006003010085
:1004C00000000100CA0900044A0670030A000A007D
:1004D0008403BE0900014403620364005802AC2691
:1004E000B8093F004C005E03FF7F0000E803AE093F
:1004F0001F004700680301000100FA00A209030081
:100500004900720301000000050098091F804B009C
:1005100066030100010063008D091F804D00640324
:1005200001000000010000000000000000000000C9
:1005300000000000FC014C03B00BA10B990B8F0BCA
:10054000830B7B0B6C0B610B520B450B00090003FB
:100550000407080900030708090001020304080949
:1005600000010203040506080909E10AFF7F0200F1
:100570002C06010000000400D60A010044003603E6
:1005800064005802AC26D00AFF7F4D003A030100F8
:1005900000000100C80AFF7F40003C030100010089
:1005A000F401C00AFF7F40003E0301000100F40196
:1005B000B40AFF7F41034003E803581B3075A90AC2
:1005C000FF7F4D004203010000000100A30AFF7FEE
:1005D00002001E060100000004009B0A0200010048
:1005E0001A06010000000400940AFF7F02001206B0
:1005F0000100000001008E0AFF7F000000000000E3
:1006000000000000000000000000000000000000EA
:10061000000016064A03400A370A64014603220610
:100620004403850A7E0A780A6F0A660A3006340394
:10063000850A5F0A570A4F0A470A20202D2D2020DD
:1006400000636865616C692D636861726765720A31
:1006500076312E39395F32303135303732370063F9
:10066000616C69626174696F6E206572726F72008D
:10067000706C656173652063616C69627261746539
:1006800000656570726F6D2072657365740A6572BE
:10069000726F723A2000726573657474696E6720B8
:1006A000656570726F6D00202020202020202020A2
:1006B00020202079657300656570726F6D2072650A
:1006C0007365743A005245564552534520504F4C7D
:1006D0004152495459006572726F723A20202020AD
:1006E00000636F6D706C6574653A2000F330000034
:1006F000004000000000DA3100400000000000402F
:100700008C2FFFFFFF7F040000407830FFFFFF7F4A
:10071000040000403830000200000800004044306F
:1007200000020000080000405830000200000000F5
:1007300000407F2D0000006000000000832D0000BD
:10074000006000000000872D000000200400004031
:100750008B2D0000002004000040E32FFFFFFF7FEF
:1007600004000040C12FFFFFFF7F000000401D304C
:10077000FFFFFF7F000000005731800100000000F4
:100780000040A02FFFFFFF7F040000000130FFFFAB
:10079000FF7F000000000000FFFFFF7F000000005F
:1007A000250064656C746120543D20004E2F41008B
:1007B000546578743D0064656C746120563D20007A
:1007C0006D6178566F75743D002D00546578743DE9
:1007D00000206C696D69743D0056696E7075743DDA
:1007E00000776972657320523D00626174742E2037
:1007F000523D006220004C696D6974733A20006EAE
:100800006F2064542F740025200043684342426CDB
:10081000446946435374534243594343000101031F
:1008200008141E0101FA7D3C1E0A01E80301420C76
:10083000E80300400C6400003E0C6400003B0C64C4
:100840000000390CE80301360CE80301340C010008
:1008500000320CE80301400C0100002B0C64000086
:100860002E0C0100002C0C0100002C0C01000000DB
:1008700000010000290C141719181A0705061F207B
:1008800021222324566D696E75733A0056706C757B
:10089000733A0056623270696E3A0056623170697E
:1008A0006E3A0056623070696E3A006164633A00D5
:1008B00074656D703A00496F75743A202000766156
:1008C0006C75653A20003330306D41003130306D49
:1008D0004100313030306D41003130306D410063C6
:1008E000616C69622E20702E3A00566F75743A0062
:1008F00056312D363A005662363A005662353A0085
:100900005662343A005662333A005662323A005622
:1009100062313A0056696E3A0065787065727420EB
:1009200044414E474552210074656D7020657874CE
:1009300065726E004920646973636861726765005F
:10094000492063686172676500766F6C74616765E2
:100950000062616C616E636520706F727421006269
:100960006174746572792100646973636F6E6E657A
:10097000637400636F6E6E6563740064542F6474F7
:10098000002D64560056206C696D697400616461C5
:100990007074206469733A00442F43207265737445
:1009A0003A00442F43206379636C65733A006361B6
:1009B0007020434F66663A0074696D653A007C6545
:1009C0007874726E2054434F3A007C64542F6474E0
:1009D0003A00657874726E20543A007C69676E72D2
:1009E00020667273743A007C64563A00656E6162E8
:1009F0002064563A0062616C2E206572723A006D76
:100A0000696E49643A0049643A006D696E49633A17
:100A10000049633A004361703A0056636F3A0056EA
:100A2000643A0056733A0056633A00563A006261DF
:100A300074746572793A00616476616E636564000E
:100A400073696D706C6500542D70726F677200541D
:100A5000656D706572610070726F6772616D0061C3
:100A60006C77617973006578742E2041646300654A
:100A700078742E20646562006465627567006E6F2D
:100A8000726D616C0064697361626C6564007265AB
:100A9000736574006D656E75733A007C737065657F
:100AA000643A00554152543A00616463206E6F69A4
:100AB00073653A00696E707574206C6F773A200028
:100AC0006D696E2049643A006D696E2049633A0091
:100AD000626565703A007C66616E2054206F6E3AE4
:100AE0000066616E206F6E3A004C4544004E695AB4
:100AF0006E004C343335004C343330004C69706F29
:100B0000004C696C6F004C696665005062202000E3
:100B10004E694D48004E69436400556E6B6E004E41
:100B20006F6E650072657365742064656661756CCF
:100B3000740063616C6962726174650073657474DA
:100B4000696E6773006564697420626174746572AC
:100B50007900636170616369747920636865636BB0
:100B600000443E4320666F726D61740073746F724F
:100B70006167652B62616C616E630073746F726193
:100B800067650066617374206368617267650064FD
:100B900069736368617267650062616C616E636549
:100BA000006368617267652B62616C616E636500EA
:100BB000636861726765006578742E74656D702E68
:100BC0006375746F66660074696D65206C696D6924
:100BD00074006361706163697479206375746F6612
:100BE0006600696E707574205620746F206C6F7784
:100BF000004857206661696C7572650062616C61BE
:100C00006E63657220646973632E0062617474653B
:100C1000727920646973632E006E6F6C696D6974FC
:100C200000206E6F00796573005500006D00432F42
:100C30006D002500F400416800430057680057002C
:100C400056004100EA06E60B8A120D2C282F1124CB
:100C50001FBECFE5D8E0DEBFCDBF10E0A0E6B0E01C
:100C6000E2EAF6E702C005900D92AC3AB107D9F777
:100C700014E0ACEAB0E001C01D92A43AB107E1F77C
:100C800016E0C7E2D6E004C02197FE010E94F23AC6
:100C9000C232D107C9F70E9483120C944F3B0C94C7
:100CA000000086B380958170B19902C092E001C0C6
:100CB00090E0892BB29902C094E001C090E0892BAA
:100CC000B39902C098E001C090E0892B0895882371
:100CD00039F0A69AA79AD59A889A8A9A8F9A0895EF
:100CE000A698A798D59888988A988F98089520E014
:100CF00042E060E18DEA90E00E941E380E94560AB0
:100D00000E94270888E799E60C9456078091B30063
:100D1000882331F08091AC008F5F8093AC0002C0DB
:100D20001092AC008091B3008A3010F088E001C0CE
:100D300080E09091B300943108F084E09091B3008A
:100D40009E3108F082E09091AC00892311F0C49AA2
:100D50000895C49808958093B3000895811106C042
:100D6000939A0E94770780E00C941A08939808954C
:100D700080FF02C0AE9A01C0AE9881FF02C0AF9A58
:100D800001C0AF9882FF02C0DD9A01C0DD9883FFE9
:100D900002C0909A01C0909884FF02C0929A01C04C
:100DA000929885FF02C0979A08959798089580E0D9
:100DB0000E94B80680E00E94AE061092B30087B190
:100DC0008F7387B98B9A8D9AD79ABC9A8C9A8D9A81
:100DD0008E9A08958DEA90E00C9473382FB7F894AA
:100DE0008091B5009091B600A091B700B091B80085
:100DF0002FBF892F9A2FAB2FBB27A7FDBA95089538
:100E00002FB7F8941092BC001092BB00861797077A
:100E100068F480E090E4A0E0B0E08093B5009093A7
:100E2000B600A093B700B093B80008C01092B50008
:100E30001092B6001092B7001092B8008091B500E1
:100E40009091B600A091B700B091B800BA2FA92F29
:100E5000982F88278093B5009093B600A093B70091
:100E6000B093B80081E08093B4002FBF0895CF9372
:100E7000DF93EC01C13080E6D80758F4C13080E43C
:100E8000D80748F48EE00E94620A9598BE018DE072
:100E900009C0C0E0D0E68DE00E94620A949ABE01CB
:100EA00070548EE0DF91CF910C94400A893729E687
:100EB000920710F088E799E6BC0180E00E946F0E6F
:100EC000813C2FEF920710F080EC9FEF2FB7F89442
:100ED0009093BA008093B9002FBF08959C019FB7EB
:100EE000F8943093BC002093BB009FBF0895CF932C
:100EF000DF93C82F8111DF9ADFB7F8948DE00E944D
:100F0000620A94988EE00E94620A95981092B4004A
:100F1000DFBFC11104C0969ADF91CF9108959698D2
:100F200080E00E948D0CEC0186E00E948D0CBE01D9
:100F3000DF91CF910C9400070F931F938091B40021
:100F4000882309F474C080E00E94960C2091B900B7
:100F50003091BA008217930730F080E00E94770743
:100F60001092B40064C082E00E94960C4091BB00D5
:100F70005091BC0060E070E00091B5001091B600A7
:100F80002091B7003091B800481B590B61097109D5
:100F9000E2E0440F551F661F771FEA95D1F7400F17
:100FA000511F621F731F4093B5005093B6006093AA
:100FB000B7007093B8008091B5009091B600A091F1
:100FC000B700B091B800B7FF08C01092B5001092FA
:100FD000B6001092B7001092B8008091B5009091C1
:100FE000B600A091B700B091B8000197A046B10536
:100FF00060F080E090E0A0E6B0E08093B5009093D0
:10100000B600A093B700B093B8008091B50090915E
:10101000B600A091B700B091B800892F9A2FAB2FDE
:10102000BB27A7FDBA951F910F910C9437071F910D
:101030000F910895882329F080E00E947707DF98B8
:101040000895DF9A0895BC018EE00C94400ADE9862
:10105000D698BD9ABE9ABF9A8EEA86B9369A0895F6
:1010600084B135B1E091C6002FB7F89490E0932B8E
:10107000F0E0DF01AA0FBB1FA554BD4F11969C9352
:101080008E933091BF00332391F0EE0FFF1FEE0FD0
:10109000FF1FE352FD4F4081518162817381480FF0
:1010A000591F611D711D40835183628373832FBF5C
:1010B0000895CF930E9478229093DA028093D90208
:1010C0000E94361C9093DC028093DB028091BF006B
:1010D000882309F459C00E94782240911903509145
:1010E0001A0360911B0370911C03CAE09C01C29F0C
:1010F000C001C39F900D1124480F591F611D711D20
:101100004093190350931A0360931B0370931C03BD
:101110000E94361C40911D0350911E0360911F03D5
:10112000709120039C01C29FC001C39F900D1124A8
:10113000480F591F611D711D40931D0350931E03DD
:1011400060931F03709320038091210390912203E9
:101150000197B9F48091E5029091E602A091E7022F
:10116000B091E80222E0B695A795979587952A95C4
:10117000D1F78093E5029093E602A093E702B09343
:10118000E802CF910C946F0FCF91089580914203A4
:1011900090914303892BF1F09091C3009923D1F0F2
:1011A00021E030E00090C10002C0220F331F0A94FA
:1011B000E2F74091210350912203842F8F703FB7B3
:1011C000F8944BB35BB3252B2BBB890F8A95F1F7B2
:1011D0004BBB3FBF08958091BE008F5F803108F008
:1011E00080E08093BE008091C0009091C100A091EA
:1011F000C200B091C3008093C4009093C500A09337
:10120000C600B093C700E091BE00EF5FE03108F088
:10121000E0E084E0E89FF0011124E250FF4F859167
:101220009591A591B4918093C0009093C100A09333
:10123000C200B093C3008091440390914503892B71
:1012400039F08091C000873019F486E08093C000A7
:101250008091BE0081110CC00E9459082091210389
:101260003091220381E0232B09F480E08093BF00BA
:1012700008950E9430088091BD0091E0980F9093EE
:10128000BD00873081F128F4882341F08130A9F036
:101290000895883051F1893069F108958091C00036
:1012A00087FD05C088B38F71806C88BBD69A80910A
:1012B000C600823019F50C949C078091C00087FD10
:1012C0001DC04FB7F8942AB32F7B38B39091C0005C
:1012D00050E29502C0011124932F9F71892B88BB86
:1012E0002ABB4FBF08950C94C6088091C10080624C
:1012F00087B908951092BD000C94EB0808951F92D1
:101300000F920FB60F9211242F933F934F935F9339
:101310006F937F938F939F93AF93BF93EF93FF93BD
:101320000E943909FF91EF91BF91AF919F918F91E9
:101330007F916F915F914F913F912F910F900FBED1
:101340000F901F9018951F920F920FB60F921124B5
:101350002F933F934F935F936F937F938F939F93BD
:10136000AF93BF93EF93FF930E94A933FF91EF9147
:10137000BF91AF919F918F917F916F915F914F91AD
:101380003F912F910F900FBE0F901F90189588E0FE
:1013900085BD85B5846085BD14BC8CE783BD89B7E8
:1013A000806889BF08951F920F920FB60F92112483
:1013B0002F933F934F935F936F937F938F939F935D
:1013C000AF93BF93EF93FF938091CE009091CF00A6
:1013D0002091CA003091CB00820F931F9093CB00D5
:1013E0008093CA008091CC009091CD002091C800DC
:1013F0003091C900820F931F9093C9008093C80059
:101400002FB7F8948091CA009091CB0035E0969563
:1014100087953A95E1F79BBD8ABD8091C800909170
:10142000C90045E0969587954A95E1F799BD88BD35
:101430002FBF8091CA009091CB008F719927909314
:10144000CB008093CA008091C8009091C9008F7131
:1014500099279093C9008093C8000E948606FF9147
:10146000EF91BF91AF919F918F917F916F915F911C
:101470004F913F912F910F900FBE0F901F90189595
:101480009FB7F8948E3039F47093CF006093CE00FC
:101490008FB5806808C08D3039F47093CD006093AB
:1014A000CC008FB580628FBD9FBF089580E092E031
:1014B00097BD86BD82E08FBD89E18EBD89B784600E
:1014C00089BF08958E3019F48FB58F7704C08D30A1
:1014D00019F48FB58F7D8FBD08951F920F920FB6AF
:1014E0000F9211242F934F935F938F939F93EF93BA
:1014F000FF935A991AC02CB18091E6019091E701AF
:10150000019699274091E8015091E90184179507C8
:1015100069F0E091E601F091E701EA51FF4F208385
:101520009093E7018093E60101C08CB1FF91EF91A8
:101530009F918F915F914F912F910F900FBE0F90C0
:101540001F9018951F920F920FB60F9211242F9390
:101550003F938F939F93EF93FF932091E6013091F8
:10156000E7018091E8019091E9012817390711F40A
:10157000559812C0E091E801F091E901EA51FF4F5E
:1015800020818091E8019091E9010196992790933B
:10159000E9018093E8012CB9FF91EF919F918F9120
:1015A0003F912F910F900FBE0F901F901895CF92E3
:1015B000DF92EF92FF920F931F93CF93DF93EC0193
:1015C0006A017B014115514E6105710509F1E885FC
:1015D000F98581E090E00C8802C0880F991F0A9479
:1015E000E2F7808360E079E08DE390E0A701960167
:1015F0000E94B13A89019A0101501109210931096A
:101600003695279517950795980101151041A8F073
:10161000E885F985108260E874E88EE190E0A70122
:1016200096010E94B13ADA01C9010197A109B109F5
:10163000B695A795979587959C01EC81FD813083A0
:10164000EE81FF8120831D8AEA85FB85408181E050
:1016500090E09C01098802C0220F331F0A94E2F730
:10166000242B2083EA85FB8540819C010A8802C0E7
:10167000220F331F0A94E2F7242B2083EA85FB858F
:1016800020810B8802C0880F991F0A94E2F7809589
:1016900082238083DF91CF911F910F91FF90EF9074
:1016A000DF90CF900895CF93DF93FC0182819381E7
:1016B000EC01D395DC01AE5FBE4F288139818D915D
:1016C0009C91119728173907C1F7A285B3853C91E2
:1016D00081E090E0AC01018802C0440F551F0A94DC
:1016E000E2F7242F209523232C93A285B3853C91E8
:1016F000AC01028802C0440F551F0A94E2F7242F60
:10170000209523232C93A285B3852C91038802C0B6
:10171000880F991F0A94E2F7809582238C93808129
:101720009181FC01EE5FFE4F208131813297318340
:101730002083DF91CF910895FC018589882329F0CA
:10174000A085B1858C9186FFFBCF158A08950F93F4
:101750001F93CF93DF93FC01A281B3818D01139579
:10176000E8018881998101969927AD014E5F5E4F0E
:10177000EA012881398182179307D1F3E801288192
:101780003981A20FB31F6C93A281B381B3951196D7
:101790009C938E93A285B3852C9181E090E0038881
:1017A00002C0880F991F0A94E2F7822B8C9381E084
:1017B000858B0084F185E02D80818064808381E0C9
:1017C00090E0DF91CF911F910F910895E0EDF0E04F
:1017D00086EE90E0918380839383828380E490E01F
:1017E0009583848329E230E0378326832BE230E03F
:1017F000318720872AE230E03387228795878487E4
:101800008CE290E09787868784E0808B83E0818BF1
:1018100087E0828B85E0838B81E0848B0895CF9372
:10182000DF931F92CDB7DEB7E091A004F091A10441
:10183000309711F4E4EAF4E0CE0101962EEB8E1716
:101840009F0710F02193FBCF0F90DF91CF91089568
:10185000CF93DF9300D0CDB7DEB72091A0043091B5
:10186000A1042115310511F424EA34E0CE010196DA
:10187000821B930B0F900F90DF91CF910895CF9320
:10188000DF931F92CDB7DEB72091A0043091A10461
:101890002115310511F424EA34E0F901BE016F5F2E
:1018A0007F4FCF01821B930B6E177F0728F040817B
:1018B0004E3B11F43196F5CF0F90DF91CF91089503
:1018C000009741F0EFE9FFE03197F1F700C0000029
:1018D0000197F6CF08958436910538F064E670E0FC
:1018E0000E949D3ACB010C94600C019728F025E3EF
:1018F0002A95F1F70000F9CF08956AE070E00E94A0
:101900009D3ACB010C946B0CE82FF0E0EE0FFF1F1B
:10191000E756FD4F808191810895E82FF0E0EE0FAA
:10192000FF1FE15BFD4F8081918108952FB7F894EF
:10193000E82FF0E0EE0FFF1FE554FD4F808191810D
:101940002FBF089580912403089580910302909100
:10195000040208958091F1019091F201089580911F
:10196000F3019091F40108958093EE010895E82F1A
:10197000F0E0EE0FFF1FEB5FFD4F80819181089536
:10198000613110F4423040F021E030E0FC0133835B
:10199000228331832083089550E0460F511D460F66
:1019A000511D440F551F440F551FBA01645F7F4FEF
:1019B00044E050E00C940A3B9A01813190F462308B
:1019C00080F470E0680F711D680F711D660F771F3E
:1019D000660F771F645F7F4F44E050E0C9010C94AD
:1019E000283B0895EF92FF921F93CF93DF9300D08F
:1019F00000D0CDB7DEB786E7E82E80E0F82E10E005
:101A0000F70185919591A591B49189839A83AB83D0
:101A1000BC83AE014F5F5F4F60E0812F0E94DC0C02
:101A2000F701349685919591A591B49189839A8314
:101A3000AB83BC83AE014F5F5F4F61E0812F0E949B
:101A4000DC0C1F5F88E0E80EF11C1131C9F681E063
:101A50000E940F130F900F900F900F90DF91CF9176
:101A60001F91FF90EF90089581E0209179023091CD
:101A70007A022331310509F080E0089580917702E0
:101A80009091780208958091730290917402089564
:101A900080917D0290917E02089580912D02909117
:101AA0002E02039750F080913302909134020397F5
:101AB00020F083E090E00C94B91980E008952FB7EE
:101AC000F89480E090E0FC01EE0FFF1FEE0FFF1F87
:101AD000E352FD4F108211821282138201968131EE
:101AE000910589F784E690E0909322038093210387
:101AF000109223032FBF0895CF93CFB7F89410927D
:101B00000202109201021092FD011092FE01109249
:101B1000FF01109200021092F9011092FA01109246
:101B2000FB011092FC011092F5011092F601109247
:101B3000F7011092F8010E94D1339093F001809345
:101B4000EF01CFBFCF9108950E947C0D1092F40158
:101B50001092F3011092F2011092F1010895E5E064
:101B6000F2E01192119282E0EF34F807D1F7089574
:101B7000CF93CFB7F89481E090E0909322038093C5
:101B80002103809323030E94AF0DCFBFCF9108950F
:101B9000CF93DF930E94B80DC0910302D09104024D
:101BA0008091030290910402C817D90729F48AE0B2
:101BB00090E00E94F733F4CFDF91CF910895109217
:101BC000240380E00C94AE06CF93DF9381E00E9463
:101BD000960CEC0180E00E94960C8C179D0718F47F
:101BE000C81BD90B02C0C0E0D0E081E0C93ED340A1
:101BF00008F480E0DF91CF9108958F929F92AF9289
:101C0000BF92CF92DF92EF92FF920F931F93CF93E9
:101C1000DF93CDB7DEB728970FB6F894DEBF0FBEBF
:101C2000CDBF6115710509F445C05B01F82E40E098
:101C3000682FCE0105960E94C00C41E06F2DCE01A9
:101C400001960E94C00C2B813C81C901A0E0B0E04C
:101C5000CF80D884E12CF12C9C01AD012C193D09D9
:101C60004E095F09C501A0E0B0E08D809E80A12CE7
:101C7000B12CBC01CD01681979098A099B090E9420
:101C8000813A29813A81890120E030E0A901980157
:101C9000281939094A095B090E94D33ADA01C901B6
:101CA0008C0D9D1DAE1DBF1DB7FF06C080E090E0EE
:101CB000DC0102C080E090E028960FB6F894DEBF09
:101CC0000FBECDBFDF91CF911F910F91FF90EF908D
:101CD000DF90CF90BF90AF909F908F9008958F929C
:101CE0009F92AF92BF92CF92DF92EF92FF920F93AB
:101CF0001F93CF93DF93CDB7DEB728970FB6F89435
:101D0000DEBF0FBECDBF6115710509F445C05B0193
:101D1000F82E40E0682FCE0105960E94C00C41E0ED
:101D20006F2DCE0101960E94C00C29813A81C90114
:101D3000A0E0B0E0CD80DE80E12CF12C9C01AD0173
:101D40002C193D094E095F09C501A0E0B0E08F8064
:101D50009884A12CB12CBC01CD01681979098A099C
:101D60009B090E94813A2B813C81890120E030E06F
:101D7000A9019801281939094A095B090E94D33A37
:101D8000DA01C9018C0D9D1DAE1DBF1DB7FF06C038
:101D900080E090E0DC0102C080E090E028960FB681
:101DA000F894DEBF0FBECDBFDF91CF911F910F9191
:101DB000FF90EF90DF90CF90BF90AF909F908F906B
:101DC00008958250893130F4E82FF0E0E559FF4F53
:101DD0008081089581E00895CF93DF93833149F4A2
:101DE00081E02091790230917A0223313105C1F4EA
:101DF0001AC0E82FF0E0EE0FFF1FE15BFD4FC0813E
:101E0000D1810E94E10E882319F0813029F00AC0A7
:101E100081E0E39740F404C081E0C935D24018F472
:101E200080E001C081E0DF91CF910895CF93C0E0C1
:101E30008FE18C0F0E94EC0E882329F0CF5FC63013
:101E4000B9F786E001C08C2FCF9108951F93CF93EF
:101E5000DF931F92CDB7DEB7182F69830E94E10E82
:101E6000E12FF0E0EE0FFF1FE15BFD4F482F69818E
:101E7000808191810F90DF91CF911F910C948D36CD
:101E80002FB7F8946091EA017091EB018091EC0119
:101E90009091ED012FBF2DE730E040E050E00E942F
:101EA000B13ABB27A52F942F832F089520917D024F
:101EB00030917E028091EA019091EB01A091EC01BA
:101EC000B091ED01820F931FA11DB11D8093EA0116
:101ED0009093EB01A093EC01B093ED0108958091F4
:101EE000210390912203892B49F080912103909145
:101EF000220301979093220380932103089590E099
:101F0000880F991FFC01E15BFD4F20813181621731
:101F1000730718F4261B370B04C0AB01421B530B8D
:101F20009A01FC01EB5FFD4F2730310518F011825B
:101F3000108206C0208131812F5F3F4F3183208383
:101F4000FC01E15BFD4F7183608308958FB7F894C6
:101F50001092EA011092EB011092EC011092ED0147
:101F60008FBF0E94B80D0E94A40D60E070E089E16F
:101F70000E947F0F60E070E08BE10E947F0F60E0C5
:101F800070E08CE10E947F0F60E070E08DE10C94C6
:101F90007F0F10920402109203020C94A60F9091EE
:101FA0002403911109C00E94AE060E94C90F81E06E
:101FB000809324030C94C80D08950C94C90FAF921C
:101FC000BF92CF92DF92EF92FF920F931F93CF9326
:101FD000DF93C0914F02D0915002809151029091B5
:101FE00052028C179D0718F4C81BD90B02C0C0E021
:101FF000D0E0BE0182E10E947F0F20915F0230910C
:1020000060028091610290916202009163021091DE
:1020100064022817390720F4BC01621B730B02C04D
:1020200060E070E08017910718F4081B190B02C0DC
:1020300000E010E08FE10E947F0FB80180E20E9473
:102040007F0F45E6E42E42E0F42E11E2F7016191A4
:1020500071917F01812F0E947F0F1F5F1532B1F7B1
:102060000E94160FF82E80E000E010E08F1569F056
:10207000EFE1E80FF0E0EE0FFF1FE15BFD4F208185
:102080003181020F131F8F5FF1CFB80183E10E94EE
:102090007F0F0115110581F00C171D0720F4CE01EB
:1020A000801B910B03C0C8018C1B9D0B893B9B407F
:1020B00018F4E80113E102C012E1F12CBE0184E141
:1020C0000E947F0F6F2D70E086E10E947F0F612FCD
:1020D00070E085E10E947F0F0E94400F5C010E942A
:1020E0002A1C882329F000915502109156020BC03A
:1020F0000E946C22882329F000915302109154020F
:1021000002C000E010E0B80187E10E947F0FB50136
:1021100089E10E947F0F9801DE010E94603A20E170
:10212000C22E27E2D22EE12CF12CA70196010E94AB
:10213000B13AB90188E10E947F0F9501DE010E944A
:10214000603AA70196010E94B13AB9018AE1DF9194
:10215000CF911F910F91FF90EF90DF90CF90BF90A4
:10216000AF900C947F0F1F93CF93DF93182FC82F3E
:10217000D0E0FE01EE0FFF1FEE0FFF1FE352FD4FF9
:10218000608171818281938128EE33E040E050E0EC
:102190000E94B13ACC0FDD1FC756DD4F398328832B
:1021A000B901812F0E94FD0DBC01812FDF91CF91DC
:1021B0001F910C947F0F4F925F926F927F928F923C
:1021C0009F92AF92BF92CF92DF92EF92FF920F93C6
:1021D0001F93CF93DF93CDB7DEB728970FB6F89450
:1021E000DEBF0FBECDBF0E94D1332091EF013091F1
:1021F000F001821B930B8133954708F4AAC04FB7B7
:10220000F8942091010230910202A8EEB3E00E94FE
:10221000603A6B017C01F694E794D794C7944090A0
:10222000FD015090FE016090FF01709000026091EE
:10223000F9017091FA018091FB019091FC010091EC
:10224000F5011091F6012091F7013091F801098311
:102250001A832B833C834FBF6D837E838F83988744
:102260000E947C0D2091F3013091F4012F5F3F4FCC
:102270003093F4012093F3016D817E818F819885E5
:10228000A70196010E94B13A49015A01C301B20166
:10229000A70196010E94B13AB90180E00E94FD0DAC
:1022A0003C01B40181E00E94FD0D8615970520F4E4
:1022B0005301A81AB90A02C0A12CB12C8090870240
:1022C00090908802A814B90420F48091EE01811145
:1022D00004C0B5018CE10E947F0FB501681979092E
:1022E0008BE10E947F0F69817A818B819C81A7019C
:1022F00096010E94B13AB90187E00E94FD0D20913C
:10230000F1013091F2019093F2018093F101821B6F
:10231000930BBC01660F771F8DE10E947F0FB60102
:102320008EE128960FB6F894DEBF0FBECDBFDF91C9
:10233000CF911F910F91FF90EF90DF90CF90BF90C2
:10234000AF909F908F907F906F905F904F900C9484
:102350007F0F28960FB6F894DEBF0FBECDBFDF917A
:10236000CF911F910F91FF90EF90DF90CF90BF9092
:10237000AF909F908F907F906F905F904F90089557
:10238000CF932FB7F89480912103909122032FBF10
:10239000892B09F08DC080912303811186C0809123
:1023A0002403882309F47EC08091030290910402E3
:1023B000019690930402809303028091DD02909134
:1023C000DE02A091DF02B091E002B695A795979545
:1023D00087954091FD015091FE016091FF01709140
:1023E0000002840F951FA61FB71F8093FD019093D5
:1023F000FE01A093FF01B09300028091E102909151
:10240000E202A091E302B091E402B695A7959795F8
:1024100087954091F9015091FA016091FB0170910B
:10242000FC01840F951FA61FB71F8093F90190939D
:10243000FA01A093FB01B093FC018091F902909105
:10244000FA02A091FB02B091FC02B695A795979570
:1024500087954091F5015091F6016091F7017091D7
:10246000F801840F951FA61FB71F8093F501909365
:10247000F601A093F701B093F801809101029091C9
:102480000202019690930202809301020E94DB10E7
:10249000C0E08C2F0E94B310CF5FC131D1F70E94F2
:1024A000DF0F03C085E00E94B310CF910C945F0D45
:1024B000CF9108950C94C01160E085E293E00E94F2
:1024C0006A2A87FD0AC0811102C00C949C2A9927B0
:1024D00087FD909501970C94E82B08950E94D706EC
:1024E00078940E9477060E94C7090E9404230E94E4
:1024F000A41C0E94DD0F0E940F0C0E9492140E94E7
:102500004B2E0C94202F0E946E120E949B130E944F
:102510005C12FDCF6EE371E085E293E00E94C32C74
:10252000E5E2F3E088E890E09183808384818C5E2B
:1025300084830895FC0194819451691718F4CF01A4
:102540000C94BE2C862F891B0C94FE17EF92FF92E1
:102550000F931F93CF938C017B0141110E94493B44
:10256000C5E0C15059F0C8010E94223B8E159F055D
:1025700039F084E690E00E94E333F3CF81E001C0BC
:1025800080E0CF911F910F91FF90EF900895EF920F
:10259000FF920F931F93CF93DF938C017C01E60E84
:1025A000F71ECFEFDFEF0E151F05A9F0C8010E943F
:1025B0001A3BC82788E09E01369527959C2FE90194
:1025C00090FF04C091E0C92790EAD927815099F77C
:1025D0000F5F1F4FE8CFCE01DF91CF911F910F9179
:1025E000FF90EF900895EF92FF920F931F93CF9378
:1025F000DF931F92CDB7DEB78C017B0149830E9428
:10260000C7124981BC01C8018E0D9F1D0F90DF913B
:10261000CF911F910F91FF90EF900C94A612482F2D
:1026200068E870E08CE090E00C94F312482F60E2D0
:1026300073E086E990E00C94F312482F6AE170E0B1
:1026400088EB93E00C94F3120F931F93CF93DF93D7
:10265000D82F182F1170412F63E678E680E090E0C4
:102660000E94A612C82F412F6CE679E682E090E026
:102670000E94A6128111C1E0412F61E070E184E067
:1026800090E00E94A6128111C1E0D1FB002700F961
:10269000402F69E070E086E090E00E94A612811170
:1026A000C260D2FB112710F9412F63E070E088E08F
:1026B00090E00E94A6128111C460D3FBDD27D0F9FF
:1026C0004D2F6AE070E08AE090E00E94A61281112E
:1026D000C86001110E94F20C80E00E940F1381116A
:1026E000C26011110E94EC1780E00E941613811144
:1026F000C460D1110E94AB1480E00E941D138111AF
:10270000C8608C2FDF91CF911F910F910895CF93C7
:10271000C82F0E94DE2EC0FDC260C1FDC460C2FD94
:10272000C8600E94F82E8C2F0E942413682F8C2FD3
:10273000CF910C94FC2E80E00E942413882321F07A
:102740000E94871380E0089581E0089580E00E9450
:10275000241381600C948713CF930E94412E86E24C
:1027600092E090939F0380939E03C1E0C0939D03EA
:10277000109296030E94EF15823011F4C0939603D5
:102780000E94931B91E0813009F090E0892FCF9156
:10279000089561E081E00E94001B82E392E0909343
:1027A0009F0380939E03089561E081E00E94001BD7
:1027B0008EE392E090939F0380939E03089560E0E0
:1027C00082E00E94001B80E292E090939F0380933E
:1027D0009E03089561E081E00E94001B8AE192E07F
:1027E00090939F0380939E0308951092960390E028
:1027F0008930910528F5FC01E65DFF4F0C94F23A13
:102800000E94EF15811102C00C94D4130E94EF15A1
:10281000853059F40C94EA1381E08093960305C047
:1028200084E192E009C00C94DF130C94C91381E099
:102830008093960388E392E090939F0380939E0396
:1028400008950E946E1E0C94A60FCF93C82F0E946D
:1028500021148C2F0E94F513C73029F0C83059F489
:1028600063E081E005C060917203660F615080E013
:10287000CF910C944F18CF910C94931B0E947F1C06
:1028800088EE93E00E94601C84E690E00E94F7339B
:102890000C94921CCF93C82F0E94C727882381F1E4
:1028A0000E943E14C09331038C2F0E94F5131092A6
:1028B0002F0310922E0383E0809330030E94B338DD
:1028C00081E00E94CF0F0E94AC13882391F081E039
:1028D000809330030E948B1E0E94412E10929D0314
:1028E00084E00E94B032809131030E9425140E943E
:1028F000C51E0E94DF0D0E94C338CF910C944A2E52
:10290000CF910895DC015496ED91FC915597EE0F0F
:10291000FF1FEE0FFF1FEC59FE4F659175918591DA
:10292000949108954AE150E068EB73E082E393E00C
:102930000C940A3B4AE150E068EB73E082E393E0D9
:102940000E94283B81E00C941D134AE150E06AE4A8
:1029500071E00C94F83A82E393E00E94A5140C9481
:102960009A140895FC010994FC01859194910C94AA
:10297000B214009761F09C0180E0F90145915491F7
:102980002E5F3F4F452B11F08F5FF7CF089580E00A
:102990000895282F81E090E03AE0215038F0AC0112
:1029A000349FC001359F900D1124F7CF089597FFF4
:1029B00002C08FEF089581E00895CF92DF92EF92E9
:1029C000FF92CF9397FF08C0909580957095619581
:1029D0007F4F8F4F9F4F07C061157105810591058E
:1029E00011F0C0E001C0C1E02AE0C22ED12CE12CE0
:1029F000F12C611571058105910541F0CF5FA701AB
:102A000096010E94D33ACA01B901F3CF8C2FCF911E
:102A1000FF90EF90DF90CF900895BC0180E090E0B0
:102A20000C94DD14CF92DF92EF92FF920F931F93DD
:102A3000CF93DF937C016B01FA01DC01CD91DC9136
:102A4000CE01B8010E949D3A009731F01C141D047C
:102A500094F4081B190B03C01C141D046CF4C90169
:102A6000801B910BC817D90720F4F801EC0FFD1F4C
:102A70000CC0F9010AC08C01C8018E0F9F1F8C1772
:102A80009D0718F4FE01E01BF10BD701ED93FC93B9
:102A9000DF91CF911F910F91FF90EF90DF90CF903A
:102AA0000895AF92BF92CF92DF92EF92FF920F9371
:102AB0001F93CF93DF93EC017B016A015901688179
:102AC000798180E090E00E94DD14823020F0825015
:102AD0000E94C91402C081E090E08C019501A6011A
:102AE000B701CE010E941215DF91CF911F910F9176
:102AF000FF90EF90DF90CF90BF90AF9008952FEFB1
:102B00003FEF40E050E00C9451150E9410348111C9
:102B1000FCCF0E9410348823E1F3089520914C03E8
:102B200030914D0395E0929FF001939FF00D112499
:102B3000E80FF11DEE0FFF1FE858FE4F85919491AD
:102B400008951F93CF93DF93182FC0915003D09116
:102B500051030E948E159C01123061F480914C0348
:102B600090914D03029731F4C730D10518F02197A9
:102B700020EB34E02C9FC0012D9F900D3C9F900DC9
:102B80001124DF91CF911F9108950F931F93CF933D
:102B9000C82F00915003109151030E948E15C1302F
:102BA00029F480915603909157030DC0C23029F447
:102BB000809158039091590306C0C33021F480914D
:102BC0006A0390916B039C01209FC001219F900D8F
:102BD000309F900D1124CF911F910F910895E09196
:102BE0004C03F0914D03E051FE4F84910895CF9333
:102BF000DF9300D000D0CDB7DEB7A0914E03B091E7
:102C00004F0320916803309169030E94603A24E6E3
:102C100030E040E050E00E94B13A293E8DEF3807A5
:102C20004105510550F429833A834B835C830E940C
:102C3000EF1529813A81853021F428EE3DEF40E0FF
:102C400050E0C9010F900F900F900F90DF91CF913E
:102C50000895ECE4F3E020A131A184819581AC01D9
:102C6000249FC001259F900D349F900D112408953D
:102C700082E00E94A115BC0188E893E10E947618C9
:102C8000893823E1920710F088E893E1089582E003
:102C90000E94A115BC0184EF91E00E947618893E44
:102CA00023E0920710F088EE93E0089580914C03A2
:102CB00090914D030A97029750F081E00E948E1583
:102CC000BC0188E799E60E949D3ACB01089581E016
:102CD00090E0089580914E0390914F0384369105C2
:102CE00030F484E690E090934F0380934E038091FC
:102CF0004E0390914F03893E9D4F30F088EE9DEF3B
:102D000090934F0380934E0380915E0390915F03F5
:102D1000893E934030F088EE93E090935F03809378
:102D20005E030E9456162091500330915103821782
:102D3000930720F4909351038093500380915003A4
:102D400090915103892B31F481E090E090935103ED
:102D5000809350030E943816209152033091530300
:102D60008217930720F4909353038093520380912A
:102D700052039091530320915A0330915B038217C1
:102D8000930720F490935B0380935A030E944716A5
:102D900020915403309155038217930720F49093A8
:102DA000550380935403209154033091550380912F
:102DB0005C0390915D032817390720F430935D037D
:102DC00020935C0380913C0390913D03409152031A
:102DD000509153034817590720F49093530380935D
:102DE000520340915A0350915B034817590720F44E
:102DF00090935B0380935A0380913E0390913F032D
:102E00002817390720F49093550380935403209199
:102E10005C0330915D032817390720F490935D031C
:102E200080935C03089528E2829FC0011124BC01B5
:102E30006A567F4F48E250E08CE493E00E940A3BE0
:102E40000C946A1628E2829FC0011124BC016A56C4
:102E50007F4F48E250E08CE493E00E94283B81E001
:102E60000C9416130E946A16ECE4F3E086819781B5
:102E70006AE070E00E949D3A7787668708950E9415
:102E80006A16ECE4F3E0808591856AE070E00E94C8
:102E90009D3A718B608B08950E946A1680914E0353
:102EA00090914F03909353038093520320914C03CE
:102EB00030914D032330310541F4969587959695D1
:102EC000879590935303809352030E943217809109
:102ED0004E0390914F0390935503809354030C94A9
:102EE0003F17CF93DF9381E00E948E159093570395
:102EF0008093560382E00E948E159093590380932D
:102F00005803C0914C03D0914D03209761F580ED9B
:102F100097E090934F0380934E0383E090E090936B
:102F200051038093500388EE93E090935F03809366
:102F30005E03109261031092600380E797E1909323
:102F400063038093620310926503109264038EE121
:102F500090E0909367038093660388E790E09093F6
:102F60006903809368030E94EF15811124C081E0FA
:102F700090E090936B0380936A03229719F48BEF90
:102F80009FEF02C081EF9FEF90936D0380936C03DE
:102F900083E090E090936F0380936E0384E690E06B
:102FA000909371038093700385E090E09093730396
:102FB000809372030DC088E090E090936D0380933E
:102FC0006C0383E00E948E1590936B0380936A03D9
:102FD000DF91CF910C944C17CF9310924D03109228
:102FE0004C030E947117C0E08C2F0E942217CF5F04
:102FF000C431D1F781E0CF910C941613CF93C82F31
:103000000E94131780914C0390914D03892B21F05E
:103010000E94ED300E94473580914C0390914D0302
:103020008A30910571F08B30910569F0892BC1F4DC
:103030008C2F90E001960E94E7348AE3CF910C94A4
:10304000BC3489E00AC065E080915203909153033B
:103050000E9413370E94473584E0CF910C94AF3023
:1030600067E080914E0390914F030E9410378FE2EA
:103070000E94BC348091500390915103CF910C94E5
:10308000E73480916603909167030E94771D8CE27C
:1030900092E090939F0380939E030C94931BCF9395
:1030A000C62F91E090939D038093740380917403E5
:1030B0008C1302C010929D0380FD02C083E001C00A
:1030C00080E00E942514813079F490919D0399232A
:1030D00059F0809174038F5F809374030E942114D0
:1030E0000E944118813011F3CF910895AB019C01EA
:1030F000A8EEB3E00E94603A9A0140E050E00E94DE
:10310000B13AA8EEB3E00E94763A24E630E040E01F
:1031100050E00E94B13A2115310581E04807510580
:1031200020F02FEF3FEF40E050E0C901089580917B
:103130009303811113C00E94A20C882381F00E9486
:10314000A50C2091750330917603821B930B9C0193
:1031500081E02330310518F080E0089581E0089582
:10316000815E0C948D0C0F931F93CF93DF93C0E07F
:103170000FEF1FEFD0E080919503C81750F48C2F0C
:103180000E94B0188017910710F48C01DC2FCF5FDC
:10319000F2CF8D2FDF91CF911F910F910895CF9393
:1031A000DF9390919303911104C0DF91CF910C9420
:1031B000B01890917903C82FD0E0992391F00E9424
:1031C000B018CC0FDD1FFE01E658FC4FCA57DC4F8C
:1031D0002081318148815981241B350B820F931F37
:1031E00006C0CC0FDD1FC658DC4F88819981DF9166
:1031F000CF910895EF92FF920F931F93CF93DF9398
:1032000000E010E0C0E0D0E0EE24EA94FE2C8091D3
:10321000950390E00817190774F4802F0E94CF18C7
:10322000C817D90708F4EC018E159F0508F47C0136
:103230000F5F1F4FECCFCE19DF0981E020916C03A7
:1032400030916D032C173D0708F080E0DF91CF919E
:103250001F910F91FF90EF900895CF93C82F809109
:103260009303882341F0C11106C00E94A50C9093DE
:10327000760380937503C09393030E94AF0D8091F2
:103280009203811104C08C2FCF910C94B806CF917A
:103290000895EF92FF920F931F93CF93DF9381E0F6
:1032A0000E94670686E10E948D0C8093950306E8D4
:1032B00013E08AE7E82E83E0F82EC0E0D0E08091AA
:1032C000950390E0C817D9076CF48C2F0E94B018B2
:1032D000F801819391938F01F701819391937F017D
:1032E0002196EDCF109293031092920380E00E94FA
:1032F0002D1910927603109275038FEF809394032B
:10330000DF91CF911F910F91FF90EF90089580E092
:103310000E942D1981E08093920308950E948719DD
:1033200080E00C946706EF92FF921F93CF93DF9398
:103330008091940387FD16C00E94CF187C01D0E0D5
:1033400011E0C0E090919503D91750F48D2F0E94A1
:10335000CF18E816F90608F4C12B110FDF5FF2CF82
:103360008C2F01C080E0DF91CF911F91FF90EF90F3
:1033700008950F931F93CF938C01C0E09091950314
:10338000C91748F48FE18C0F0E94B70C8017910782
:1033900020F0CF5FF3CF81E001C080E0CF911F919B
:1033A0000F9108958F929F92AF92BF92CF92DF922A
:1033B000EF92FF921F93CF93DF9386E090E00E94FD
:1033C000B919882309F462C00E944D0D882309F4BD
:1033D0005DC08091940387FF04C00E94B31880935E
:1033E0009403809194030E94B0185C01809058036C
:1033F000909059038AE7C82E83E0D82E96E8E92EEC
:1034000093E0F92EC0E0D0E011E08091950390E0C8
:10341000C817D907ACF48C2F0E94B01888159905ED
:1034200070F0A816B90608F410E0F60181939193A4
:103430006F01F701819391937F012196E6CF11E00F
:10344000109279030E94D933909378038093770385
:10345000112369F0DF91CF911F91FF90EF90DF90E2
:10346000CF90BF90AF909F908F900C9487190E943F
:103470009319DF91CF911F91FF90EF90DF90CF9044
:10348000BF90AF909F908F900C942D19DF91CF91AA
:103490001F91FF90EF90DF90CF90BF90AF909F90E3
:1034A0008F900895CF9380917903811115C081E0A9
:1034B00080937903C0E080919503C81768F48C2F3E
:1034C0000E94B018EC2FF0E0EE0FFF1FEA57FC4F00
:1034D00091838083CF5FEFCFCF9108950E94D9333E
:1034E0002091770330917803821B930B089580918C
:1034F0009303811103C00E94D21909C00E94521A7D
:103500000E946E1A409718F080E00E942D190E94C8
:103510009718811106C080919203882311F081E0F1
:10352000089582E008950F931F93CF938C01C0E01C
:1035300090919503C91740F48C2F0E94CF188017E3
:10354000910720F4CF5FF4CF80E001C081E0CF91FC
:103550001F910F9108950F931F93CF938C01C0E09B
:1035600090919503C91740F48C2F0E94CF1808172B
:10357000190720F4CF5FF4CF80E001C081E0CF9144
:103580001F910F91089560919503662329F070E0D3
:103590000E949D3ACB01089580E090E008950E943A
:1035A000D72281E00E943320809197039091980365
:1035B0000C94A2220C94EE220E944D0D882321F03F
:1035C0000E947D220C94CE2008950E94DC1A0E9455
:1035D0003E0D20919B0330919C032817390740F43E
:1035E00085E899E090932F0380932E0380E008955F
:1035F0008091990390919A030E94A22282E00895FB
:10360000CF93DF931F92CDB7DEB769830E94C515B4
:1036100090939C0380939B036981662369F080915A
:1036200052039091530390939A038093990380914E
:103630005A0390915B030CC0809154039091550301
:1036400090939A038093990380915C0390915D031A
:1036500090939803809397030F90DF91CF910895F3
:1036600080919E0390919F030C94B41480919E03CB
:1036700090919F0302960C94B4140E94361B0E94F2
:10368000C51E0C94B834CF93DF930E94D933EC015C
:103690000E94D9338C1B9D0B853B910510F00E9435
:1036A000DF0D0E941034882399F388E0DF91CF91D9
:1036B0000C94B0320E943D1B0E948B2E85E00E942C
:1036C000B0320C94431B0E943D1B0E94DF0D0E94F0
:1036D0008F2E86E00E94B0320C94431BE0919E0333
:1036E000F0919F03349685919491FC010994CF93B6
:1036F000DF931F92CDB7DEB7811103C00E94631B19
:103700000DC0813049F480919D03811107C08983E8
:103710000E945A1B898103C081E001C080E00F90A4
:10372000DF91CF9108950F931F93CF93DF93109262
:103730005A040E94301BD2E000E010E0C1E00E9479
:10374000103480935A040E94B42ECC2379F00E9446
:10375000051FD82F0E94771BC82F882339F00E949D
:10376000A50C0817190771F4C11107C080919D03BA
:10377000882311F0D11110C0C0E080915A0481302B
:10378000F1F60AC00E94A50C8C010E946E1BD82F76
:103790000E94771BC82FE8CF0E94361B8D2FDF9128
:1037A000CF911F910F9108950E94921C0C948E1935
:1037B0000E947F1C0E94491981E02091640330918E
:1037C0006503232B09F480E08093A00380E00C9430
:1037D00033200F931F93CF9300919B0310919C0371
:1037E000C8010E94C31A0E94AB1AC82F0E949718E2
:1037F000811109C0C11107C00E943E0DC1E0081728
:10380000190708F4C0E08C2FCF911F910F910895F4
:103810000F931F93CF930E94E91BC82F0E943B1C5C
:103820008C018091A003882329F0B8018C2F0E947D
:103830007D2001C08C2F811108C0B8018C2F0E94FF
:103840009C210E94601C82E001C081E0CF911F9109
:103850000F9108958091A503089581E02091A3031D
:103860003091A403232B09F480E008958091A303F1
:103870009091A40308958091A1039091A2030895CB
:103880000E94430D009711F481E090E0BC0184EFA9
:1038900091E00E947618893E23E0920710F088EEAE
:1038A00093E00895813020E4920710F080E090E4E6
:1038B0009093A4038093A3030E9423080C94B80D53
:1038C000CF93DF93EC010E94401CBC01C817D907BD
:1038D00008F4BE018091A1039091A2038617970777
:1038E00059F07093A2036093A10380E10E946F0ED0
:1038F000DF91CF910C94521CDF91CF91089580916C
:10390000A50381110EC080E090E00E94521C10922D
:10391000A2031092A10381E00E941A0881E0809323
:10392000A50308958091A503882369F080E090E0C5
:103930000E94521C1092A2031092A10380E00E94E8
:103940001A081092A503089581E08093A5030C94B2
:10395000921CECE5F4E087E0808382E081830E94A2
:10396000A93283E08093A6030895EF92FF920F930C
:103970001F93CF93DF9382E10E94EC0E20914C03C2
:1039800030914D032A5031092230310520F091E069
:10399000C82FC92701C0C0E00E94160F082F8091D0
:1039A0009603882369F08091500311E0801301C0D1
:1039B00010E0D1E00111D0E0813021F4DD2311F0DD
:1039C000D0E010E00E94340D8823B9F083E10E941A
:1039D0008D0C7C0182E10E948D0CE816F90628F41A
:1039E0009C012E193F09790102C0E81AF90A35EF46
:1039F000E31631E0F30608F0C1E0111102C087E0E0
:103A000001C083E080935C04DD2329F080915C0495
:103A1000825080935C04CC2329F080915C04815017
:103A200080935C04111104C0D11102C0CC2331F089
:103A300081E00E94B032D11107C004C088E00E942A
:103A4000B03204C0112311F0011102C0D0E001C056
:103A5000D1E00E940D34811102C01092A603D11151
:103A600006C0C11104C00E940D34883041F080911D
:103A7000A603823011F082E008C081E006C0809188
:103A8000A6038F5F8093A603F2CFDF91CF911F91A2
:103A90000F91FF90EF9008958FEF80935C0488E082
:103AA0000C94B0321092AB0308950E94D9339093D6
:103AB000AA038093A90308950E94D9332091A903F2
:103AC0003091AA03821B930B2091A7033091A80386
:103AD0002817390728F081E08093AB0382E008952E
:103AE0001092AB0381E008958091AB0308952CE31D
:103AF000AC01249FC001259F900D11249093A80331
:103B00008093A70308950E9449190E94D72281E05B
:103B10000C9433200E94EE220C948E190F931F9365
:103B2000CF9300919B0310919C03C8010E94C31A7C
:103B30000E94931AC82F0E949718811109C0C111C1
:103B400007C00E943E0DC1E08017910708F4C0E055
:103B50008C2FCF911F910F9108950F931F93CF93A7
:103B60000E948E1DC82F0E947D228C01BC018C2FCB
:103B70000E947D20811108C0B8018C2F0E949C21D9
:103B80000E94A22282E001C081E0CF911F910F919B
:103B900008958091B8039091B9032091BB0322232B
:103BA00041F00E94D9332091B8033091B903821BB0
:103BB000930B08956091B4037091B5038091B6039F
:103BC0009091B70328EE33E040E050E00E94B13A14
:103BD000C90108956091B0037091B1038091B2035F
:103BE0009091B30328EE33E040E050E00E94B13AF8
:103BF000C90108950F931F93CF93DF9381E00E9433
:103C0000C515EC0184E00E94C5158C0184E10E9479
:103C10008D0C8C179D07B8F408171907B0F49C0198
:103C2000201B310BCE01801B910B64E670E00E94DB
:103C30009D3AC9010E949D3A6436710510F063E611
:103C400070E0862F03C083E601C080E0DF91CF9152
:103C50001F910F910895CF93DF930E94FA1D9091C9
:103C6000BA039817E0F48093BA030E94C91D20910B
:103C7000BD033091BE03EC01C21BD30B0E94C91DD2
:103C80009093BE038093BD038091BF039091C003C6
:103C90008C179D0720F4D093C003C093BF03DF911E
:103CA000CF9108950E942B1E8091BC03811102C008
:103CB00084E601C089E690E02091BA03821B910955
:103CC0002091BF033091C003AC01429FC001439FCC
:103CD000900D529F900D1124089508950E94FA1D91
:103CE0008093BA031092BE031092BD031092C003DA
:103CF0001092BF031092B4031092B5031092B60352
:103D00001092B7031092B0031092B1031092B20355
:103D10001092B3030895CF93DF9368E572E080E0DB
:103D20000E946F0E9093AF038093AE0381E00E94D8
:103D3000C515EC01C854D44FC93729E6D20710F095
:103D4000C8E7D9E6CE010E945607BE0180E00E9476
:103D50006F0E813C2FEF920710F080EC9FEF909355
:103D6000AD038093AC030E94340D8093BC030E948A
:103D7000D9339093B9038093B8030E946E1E81E0FB
:103D80008093BB03DF91CF9108950E94C91D90934A
:103D9000B9038093B8031092BB0308950E946F2269
:103DA00081111DC00E942D1C811119C00E949718FD
:103DB000882351F18091B4039091B503A091B6038B
:103DC000B091B70380599F4FAF4FBF4F8093B4035B
:103DD0009093B503A093B603B093B7030895809171
:103DE000B0039091B103A091B203B091B303805995
:103DF0009F4FAF4FBF4F8093B0039093B103A093F9
:103E0000B203B093B303D2CF0895CF93DF938091E1
:103E1000BB03811102C082E087C080E00E94960C43
:103E20002091AC033091AD038217930758F4209191
:103E3000AE033091AF038217930760F40E942A1CEF
:103E4000882341F08BE09CE090932F0380932E0316
:103E500080E06AC0C091BC030E94340DC81719F0FD
:103E60008CEF9BE0F1CFC0919903D0919A03C85198
:103E7000DC4F0E94480DC817D90718F481EF9BE06A
:103E8000E3CF86E00E948D0C2091400330914103E6
:103E90008217930718F482EE9BE0D6CF89E10E9447
:103EA0008D0CEC010E94F715883E2DEF920731F042
:103EB000C817D90718F082ED9BE01BC0C0915E03C4
:103EC000D0915F03C83E83E0D807C8F46091B00387
:103ED0007091B1038091B2039091B30320E63AEE62
:103EE00040E050E00E94B13A2C173D0740F087ECCB
:103EF0009BE090932F0380932E0381E015C0809167
:103F0000600390916103892B09F485CF87E00E94BB
:103F10008D0C20916203309163032817390708F054
:103F20007ACF87EB9BE090CFDF91CF9108950E94ED
:103F30008A1D0E94D41B0C948E19CF93DF931F927D
:103F4000CDB7DEB78091C103882329F0813031F4E9
:103F50000E94081C0CC00E94AD1D09C00E94771A67
:103F6000823089F089830E94971F89810CC081303B
:103F700051F490919603992331F082E08093C1032C
:103F80000E94491982E00F90DF91CF910895CF935D
:103F9000DF930E94491961E083E00E94001BC091F9
:103FA0009B03D0919C0380919503811106C00E94D0
:103FB0003E0DC817D90740F40CC0CE010E94C31AA9
:103FC0000E94AB1A882329F00E94831D1092C1031E
:103FD0000BC060E083E00E94001B0E94D81B81E0C0
:103FE0008093A0038093C103DF91CF9108958091C6
:103FF000C203813029F4809197039091980308952A
:1040000080E090E008952CE0829FC001112482534B
:104010009C4F0C94152386E194E00C941523CF93C8
:10402000DF9300D000D0CDB7DEB782E10E948D0CC7
:104030009A83898384E10E948D0C29813A81281B0F
:10404000390B3A83298387E10E948D0C9C838B83F3
:10405000CE0101960E9415230F900F900F900F90A4
:10406000DF91CF910895EF92FF920F931F93CF931B
:10407000DF93D82F81E08093C2030E943E0D2091F0
:1040800097033091980340919B0350919C030D2F0F
:10409000BC018EE094E00E942E2380919B039091BE
:1040A0009C030E94C31A7C01C0E01CE09091950320
:1040B000C917A0F48C2F0E94CF182091970330913C
:1040C00098031C9FF00111240D2FA701BC01CF0103
:1040D0008A539C4F0E942E23CF5FE8CF10921C047E
:1040E0001092C50310921B0410921A04DF91CF9115
:1040F0001F910F91FF90EF9008950F931F93CF930F
:10410000C82F8B0180919603882361F1CC2349F05D
:1041100080911C04811105C00E94871981E0809361
:104120001C0480911C04882311F08530D9F420915F
:10413000970330919803203A310510F420EA30E0DB
:104140002017310710F4109292030E94771A80937F
:10415000C2038130F1F40E94FA18882319F08FEF1E
:10416000809394030E94F71F8017910780F0CC235F
:1041700071F080911C04853051F49091C50381E069
:10418000890F8093C50381E09A3020F402C0109219
:10419000C50380E0CF911F910F9108950F931F9356
:1041A000CF93DF938C010E943E0DA801BC018EE0ED
:1041B00094E00E94EC23C0E0DCE080919503C817F6
:1041C00078F48C2F0E94CF18DC9F90011124A80155
:1041D000BC01C9018A539C4F0E94EC23CF5FEDCFF5
:1041E000DF91CF911F910F910895CF92DF92EF92BF
:1041F000FF920F931F93CF93DF9360919B03709176
:104200009C038EE094E00E9453237C0180919B03E9
:1042100090919C030E94C31A6C01C0E0DCE0809185
:104220009503C81798F4DC9F800111240A531C4F92
:10423000B601C8010E945323E816F90628F0B6011A
:10424000C8010E9453237C01CF5FE9CFC701DF91F2
:10425000CF911F910F91FF90EF90DF90CF90089535
:104260000F931F93CF93DF93EB012091990330912C
:104270009A038C012817390708F489010E94F71F57
:104280009C018017910708F49801C217D307E1F049
:1042900040911C044530D1F42C173D07B8F082172B
:1042A0009307A0F480919703909198038C179D0732
:1042B00058F04091C3035091C403809175039091CD
:1042C00076034817590711F4CE0109C08091750390
:1042D000909176039093C4038093C303C901DF9147
:1042E000CF911F910F9108950F931F93CF93DF9359
:1042F0008C010E943E0D90930F0480930E04109346
:10430000110400931004C0E0DCE080919503C8170D
:1043100070F48C2F0E94CF18DC9FF0011124EA5317
:10432000FC4F9183808313830283CF5FEECFDF91B5
:10433000CF911F910F9108951F93CF93DF93182F63
:10434000EB010E944D0D811108C01123B1F1809144
:104350001A0490911B04892B81F10E9497188111F6
:104360002CC0CE010E94CE20CE010E9474210E945A
:10437000F5208C179D0748F190931B0480931A0435
:10438000BE0180911A0490911B040E9430219093E9
:104390001B0480931A0490911C04923059F1F8F494
:1043A000992311F1913089F5112339F083E080933D
:1043B0001C0410921B0410921A0480911A0490910C
:1043C0001B04DF91CF911F9108959C012C0F3D1F7D
:1043D0003695279530931B0420931A04D1CF933040
:1043E00061F0943081F011C0112339F30E948719D4
:1043F00081E00CC010921C04E0CF10921B041092BC
:104400001A0484E003C01123C1F285E080931C04E8
:10441000D4CF0C94CF1ACF93DF930E94DC1A0E9462
:104420003E0DEC0182E00E94C5158C179D0730F40B
:104430008091990390919A030E94A22280919B03FC
:1044400090919C038C179D0718F485E899E03CC077
:104450000E94AF0C029710F482E03BC08091600391
:1044600090916103892B69F08DE10E948D0C209160
:10447000700330917103281739071CF48BE799E01A
:1044800023C00E94AF0C20916E0330916F03220F66
:10449000331FC1E08217930708F4C0E08C2F0E94FD
:1044A000B40CCC23C9F280916A0390916B03892BE1
:1044B00099F28BE10E948D0CEC010E942916C8171D
:1044C000D90754F681E899E090932F0380932E0347
:1044D00081E0DF91CF91089580912104089581E0DA
:1044E00020911F0430912004232B09F480E00895CB
:1044F00080911F0490912004089580911D04909153
:104500001E0408950E94430D009711F481E090E08D
:10451000BC0188E893E10E947618893823E192076C
:1045200010F088E893E10895893E2DEF920710F08E
:1045300088EE9DEF9093200480931F040E946E07E5
:104540000C94B80DCF93DF93EC010E948222BC0142
:10455000C817D90708F4BE0180911D0490911E046C
:104560006817790750F49C01261B370B2D3831054D
:1045700068F0BC016C58710909C09B01281B390BFC
:104580002D38310518F0BC0164577F4F8617970707
:1045900059F070931E0460931D048FE00E946F0E0B
:1045A000DF91CF910C949422DF91CF910895809167
:1045B0002104811112C01092200410921F04109245
:1045C0001E0410921D0480E090E00E94942281E07D
:1045D0000E94770781E0809321040895809121044F
:1045E000882389F080E090E00E94942210922004B9
:1045F00010921F0410921E0410921D0480E00E946D
:1046000077071092210408951092200410921F043D
:1046100010921E0410921D0480E090E00E949422EB
:1046200081E0809321040C94EE22FC0142815381AD
:104630004115510589F0A081B181B7FF03C0B19543
:10464000A195B10928EE33E00E946F3A9A0140E04B
:1046500050E00E94B13AA901CA0108950F93FC01EC
:10466000CB01002341F04617570708F4CA0164172D
:10467000750748F407C06417750708F4CA014617A0
:10468000570708F4BA019783868391838083138246
:1046900012821582148233872287681B790B7187F7
:1046A00060870F910895FC0186819781A285B3856B
:1046B0000084F185E02D3097E1F0AB0160E070E01F
:1046C0009A01AB01281B390B410951090E94763A26
:1046D0009F01442737FD4095542F0E94D33A21155E
:1046E000310581E04807510524F457FD05C0C90193
:1046F00008958FEF9FEF089580E090E00895DF9296
:10470000EF92FF920F931F93CF93DF93FC012281CF
:1047100033812417350720F4DA01A21BB30B03C041
:10472000D901A41BB50B84819581969587958A172D
:104730009B0728F5808191812417350738F4EA0119
:10474000C21BD30B7B01E81AF90A06C07C01E61AEA
:10475000F70AE901C41BD50B8F01C7010E94D714CA
:10476000D82EF801808591850E94D714D81207C0F1
:10477000F801D583C483F186E086D387C287DF91B1
:10478000CF911F910F91FF90EF90DF9008950F93BD
:104790001F93CF93DF93EC018B019A01A885B98514
:1047A0000E946F3A2A853B8540E050E00E94D33A50
:1047B000C801A0E0B0E082179307A407B5071CF476
:1047C0001F821E8204C0021B130B1F830E83DF9106
:1047D000CF911F910F910895EF92FF920F931F9326
:1047E000CF93DF93EC018B017A010E947F23A70115
:1047F000B801CE01DF91CF911F910F91FF90EF9003
:104800000C94C7230F931F93CF93DF9300D000D056
:10481000CDB7DEB780E00E94840C9A83898381E063
:104820000E94840C29813A81281B390B3A83298301
:1048300083E10E948D0C9C838B8302E214E0AE0125
:104840004F5F5F4FF801608180E00E94DC0CAE0199
:104850004F5F5F4FF801608181E00E94DC0C0F9098
:104860000F900F900F90DF91CF911F910F910895AE
:104870000F931F93CF93DF93CDB7DEB728970FB673
:10488000F894DEBF0FBECDBF8C0189E00E94840C7E
:104890009E838D8388E00E948D0C800F911F9887E6
:1048A0008F838AE00E94840C9A8389830F81188504
:1048B00080E20E948D0C800F911F9C838B83AE0140
:1048C0004B5F5F4F6091220488E00E94DC0CAE01D8
:1048D0004B5F5F4F6091220489E00E94DC0C80E214
:1048E0000E94EC0E882341F0AE014F5F5F4F609154
:1048F00022048AE00E94DC0C28960FB6F894DEBFF2
:104900000FBECDBFDF91CF911F910F9108950F93EF
:104910001F93CF93DF9300D000D0CDB7DEB78C01CB
:104920008AE00E94840C9A83898389E00E948D0C1E
:10493000800F911F9C838B83AE014F5F5F4F60910F
:1049400022048AE00E94DC0C0F900F900F900F90D1
:10495000DF91CF911F910F9108951F93CF93DF9314
:10496000182F6FE579E083E799E00E94602ED0E090
:1049700082E10E94EC0EC82F882399F08FE10E94FB
:10498000EC0E811799F0D1110CC061E579E011238B
:1049900019F083E799E002C088E699E00E94602E52
:1049A000D1E00E941034813019F7C0E08C2FDF91E4
:1049B000CF911F910895CF93DF9300D000D0CDB752
:1049C000DEB7962F5A8349833C832B838F3121F4A2
:1049D000C9010E9438240EC0803221F4C9010E940E
:1049E000872408C0AE014F5F5F4F60912204892F7A
:1049F0000E94DC0C0F900F900F900F90DF91CF91E1
:104A00000895EF92FF921F93CF93DF93182FC62F35
:104A1000D42F83E00E94B0328C2F0E948D0C7C0139
:104A20000E94CD388D2F0E94840CAC0197016D2F10
:104A30008C2F0E94DB24112349F081E08093240312
:104A40000E94C80D0E94CD380E94022481E0DF91AF
:104A5000CF911F91FF90EF900C940F13AF92BF92E4
:104A6000CF92DF92EF92FF920F931F93CF93DF933A
:104A7000CDB7DEB761970FB6F894DEBF0FBECDBFDE
:104A80008C017B016A0160E070E0CE0101960E941A
:104A9000C32C8FEF8A8786E990E09A8389831D87EC
:104AA0000C878FEF9FE79F878E87198A188A6FEF91
:104AB0007FE7CE0101960E94BC2861E0CE010196FD
:104AC0000E946A2A082F87FD34C0682FCE01019604
:104AD0000E94AA28A82E80FDF0CF81FF25C01127B3
:104AE00007FD1095F701E00FF11FB4908B2D0E9488
:104AF000EC0E882311F30E94C80D10922403CE01FE
:104B000001960E947B29882359F0F601E00FF11FDE
:104B100044916B2D8A2D881F8827881F0E940125AC
:104B200081E080932403C9CFCE0101960E947B29A6
:104B3000C4CF61960FB6F894DEBF0FBECDBFDF9134
:104B4000CF911F910F91FF90EF90DF90CF90BF908A
:104B5000AF90089581E090E0909323048093220425
:104B60000E94CF0F81E00E94AD24882341F04EE7E0
:104B700053E065E873E084EE92E00E942E250C94E9
:104B8000DF0D81E090E0909323048093220480E085
:104B90000E94CF0F109261004DE752E0BA0182E807
:104BA00092E00E942E2581E0809361000C94DF0D3D
:104BB0008F3019F4CB010C949422CB010C94521C2D
:104BC0000F931F93CF93DF93EC01443019F461E00E
:104BD00070E002C06FEF7FEF2F85388901E010E0B1
:104BE00041E050E0CE010D960E9412156D857E8544
:104BF0008B85DF91CF911F910F910C94D825AF92A7
:104C0000BF92CF92DF92EF92FF920F931F93CF93B9
:104C1000DF93CDB7DEB769970FB6F894DEBF0FBE4E
:104C2000CDBFE82E062F6A0181E00E94CF0F80E001
:104C30000E94AD24882309F479C0EE2071F00E940F
:104C4000D72288E799E60E94560722E0F22E1FE05D
:104C500038EEA32E3DEFB32E08C00E947F1C83E0E8
:104C6000F82E10E1A12C90E4B92E402F612FCE0137
:104C700046960E94C00C402F6F2DCE0142960E9496
:104C8000C00C6CE873E0CE0101960E94C32C8FEF3C
:104C90008A878EE890E09A8389831C870D87B98A7A
:104CA000A88A8E899F899F878E8761E0CE010196B1
:104CB0000E946A2A87FD22C08111F3CF6E857F850D
:104CC000812F0E94D825CE0101960E947B2988233E
:104CD00079F00E94C80DD98EC88E8E859F859F8BD6
:104CE0008E8BDD8ACC8A8F2D0E94840C9B8B8A8BC5
:104CF00060E070E0812F0E94D825D3CFEE2019F01C
:104D00000E94EE2202C00E94921CAE014A5E5F4FDA
:104D1000602F812F0E94DC0CAE014E5E5F4F602F32
:104D20008F2D0E94DC0C81E00E940F130E94DF0D8A
:104D300069960FB6F894DEBF0FBECDBFDF91CF915D
:104D40001F910F91FF90EF90DF90CF90BF90AF90A9
:104D50000895EF92FF920F931F93CF93DF93CDB7F8
:104D6000DEB729970FB6F894DEBF0FBECDBF8C011A
:104D70007B01BC01CE0101960E94C32C60E0CE01F4
:104D800001960E946A2A682F87FD10C0E82FEE0F57
:104D9000FF0BEE0DFF1D4591549181E093E0003A29
:104DA000190709F080E00E94FF25E8CF29960FB689
:104DB000F894DEBF0FBECDBFDF91CF911F910F9151
:104DC000FF90EF900895109223041092220480E047
:104DD0000E94CF0F44E452E0BA0185E492E00E94C1
:104DE0002E250C94DF0DCF93DF93CDB7DEB72A9736
:104DF0000FB6F894DEBF0FBECDBF66EA73E0CE01FA
:104E000001960E94C32C60E0CE0101960E946A2A9E
:104E100087FD26C08A870E94B3388A858230A1F038
:104E20004CF4882371F08130C1F466E973E080EAC4
:104E300093E00EC0833079F0843079F40E94C1256C
:104E40000CC00E94AA2509C062E973E08AE993E0D8
:104E50000E94A92602C00E94E3260E94C338D3CF35
:104E6000109230032A960FB6F894DEBF0FBECDBF66
:104E7000DF91CF910895CF93DF93EC01842F0E94AF
:104E8000FD0D9C01CE0196958795AC014C0F5D1FE1
:104E90002417350730F4C81BD90B81E0C217D3079C
:104EA00008F080E0DF91CF91089568EE73E080E034
:104EB0000E946F0E2BE1289FB001299F700D1124D5
:104EC00040E088E799E60C943B27CF93DF931F924D
:104ED000CDB7DEB7482F68EE73E049830E946F0EAE
:104EE00025E0289FB001299F700D1124498188E891
:104EF00093E10F90DF91CF910C943B27CF93DF93F9
:104F00001F92CDB7DEB7482F64E670E049830E9458
:104F10006F0EBC01660F771F680F791F49818CE205
:104F200091E00F90DF91CF910C943B27CF930E949B
:104F30009B13C82F882341F10E945527C82F811148
:104F400005C089E499E00E94192F1EC08FE00E94DD
:104F50006527882329F082E00E946527811106C019
:104F600080E499E00E94192FC0E00EC080E10E9409
:104F70007E27882331F083E00E947E27C82F81118D
:104F800003C084E399E0EECF8C2FCF9108950C9469
:104F900096271F93CF93DF93EC01162F82E10E9497
:104FA000EC0E81110EC06FE579E083E799E00E9475
:104FB000602E8B85803161F5DF91CF911F910C942C
:104FC000921C612FCE010E94BE2CCE0109960E9438
:104FD0008F32882311F0898501C08FEF992787FDD3
:104FE0009095212F30E08217930791F0111108C09E
:104FF00065E08D859E85DF91CF911F910C947F3662
:105000000E94480D67E0DF91CF911F910C941337F8
:10501000DF91CF911F910895CF93DF93DC011B9611
:10502000CD91DC911C9780E090E0FE012EE0929FF4
:10503000E00DF11D11243296259134912115310591
:10504000A1F01D964D915C911E9737FF03C057FF4D
:1050500009C0305824233523232B21F0662321F067
:1050600061508F5F9F5FE1CF892FDF91CF910895CE
:10507000EF92FF920F931F93CF93DF938C01C62F74
:105080000E940C289EE0899F70011124D8011B9674
:10509000ED91FC911C97EE0DFF1D859194910E945E
:1050A0000735D82FC80109960E948F32882319F03E
:1050B000F801218501C02FEF332727FD30956C2F94
:1050C00070E02617370701F16FE06D1BD8011B96C2
:1050D000ED91FC911C97EE0DFF1D3596C491CC23EC
:1050E00029F0862F8C1B0E9443356C2FF801838595
:1050F00094858E0D9F1D0496DF91CF911F910F9186
:10510000FF90EF900C941132DF91CF911F910F918E
:10511000FF90EF900895CF93DF93EC010E940C284D
:105120002B853C859EE0899F200D311D1124F901BE
:10513000369685919491F90134962491215022302C
:1051400030F4FC0185919591A591B491CD01DF9149
:10515000CF910895CF93DF93EC010E940C28EB854B
:10516000FC859EE0899FE00DF11D1124329685910A
:105170009491DF91CF910895EF92FF920F931F9337
:10518000CF93DF93EC018B01FA808B816F2D680F39
:10519000CE010E940C28E82E1E870D876FEFCE01EE
:1051A0000E940C28082F8C8310E0101759F0612FF3
:1051B000CE010E940C288E1103C01F191B8302C050
:1051C0001F5FF3CFDF91CF911F910F91FF90EF9071
:1051D00008959F92AF92BF92CF92DF92EF92FF928B
:1051E0000F931F93CF93DF93CDB7DEB72C970FB6F6
:1051F000F894DEBF0FBECDBF7C01D62E942E0E9448
:105200008B288C016D2DC7010E940C28D7011B969D
:105210006D917C911C97BEE08B9F600D711D1124D8
:10522000685F7F4F46E050E0CE0107960E94F83A53
:1052300086E0FE013796DE01119601900D928A9567
:10524000E1F769817A81CB80DC80AD80BE80E2E0CD
:105250009E1203C08FEF9FEF02C081E090E06F3F8E
:10526000FFE77F0729F4BC01C8010E947F1516C023
:105270006E3F2FE7720719F4F601099520C0869F4B
:105280009001879F300D969F300D1124D8018D918C
:105290009C911197820F931F8D939C93F8018081AD
:1052A00091818C159D0514F4D182C082D8018D9115
:1052B0009C911197A816B90614F4AD92BC92D7012F
:1052C0001F96ED91FC915097309719F0B801C701E6
:1052D00009952C960FB6F894DEBF0FBECDBFDF91B7
:1052E000CF911F910F91FF90EF90DF90CF90BF90E3
:1052F000AF909F900895EF92FF920F931F93CF93DB
:10530000DF93EC019B818A81890F89871A8681E06E
:105310008D8382E0E82EFF24F3948E01075F1F4FF8
:105320000E941034482F823011F0843089F4E881D3
:10533000F9816B819A81690F0280F381E02DCE01A2
:1053400009958B819A81980F9987EA86FD8204C01E
:10535000813089F0883079F0C8010E949A32811139
:10536000FD828D81882319F0CE010E94032A9A853F
:105370009F5F9A87D5CF8FEF898781E08E838D835A
:10538000483009F080E0DF91CF911F910F91FF909D
:10539000EF9008950895FC018EE990E09183808359
:1053A00012821382648381E0858386830895FC01E1
:1053B0002481223010F4422F01C042E08281682F04
:1053C00070E050E041505109641775071CF48F5F7D
:1053D000828308958381680F711D30E02150310967
:1053E0006217730714F48F5F83830895FC01828131
:1053F000882319F08150828308958381882311F0D6
:10540000815083830895FF920F931F93CF93DF936F
:10541000EC0100E010E0F02E602F80E00E94AA3442
:105420008A81081711F080E201C08EE30E94BC342B
:105430008B81A801480F511D2C8130E04217530782
:105440004CF4E881F9816F2D680F0190F081E02D17
:10545000CE0109950E944A350130110519F001E08D
:1054600010E0D9CF1D82DF91CF911F910F91FF9056
:1054700008950F931F93CF93DF93EC010E94103494
:10548000182F0E947A38882321F081E08D838FE7DE
:105490001CC00B818A81080F123031F0143039F4AE
:1054A000CE010E94D72903C0CE010E94F6299B811C
:1054B0008A81890F081711F081E08D838D818823FF
:1054C00019F0CE010E94032A812FDF91CF911F9105
:1054D0000F910895EF92FF921F93CF93DF931F9246
:1054E000CDB7DEB77C0181E0F701858311E0C7010C
:1054F00069830E94392A6981811102C0F7011682ED
:10550000F7019681911108C0883031F481E08683DB
:1055100093818281890F09C0662311F0F7011583F9
:10552000813029F79111E3CF8FEF0F90DF91CF9169
:105530001F91FF90EF900895CF93DF93CDB7DEB723
:1055400029970FB6F894DEBF0FBECDBF62EB73E0B4
:10555000CE0101960E94C32C60E0CE0101960E940C
:105560006A2A813039F0823041F0811109C00E94ED
:10557000502CF2CF0E94F326EFCF0E94A613ECCF5F
:1055800087FFEACF29960FB6F894DEBF0FBECDBFD6
:10559000DF91CF9108950F931F93CF93DF93EC0189
:1055A0000E94561601E010E09C0141E050E0BE016F
:1055B00080E593E00E941215DF91CF911F910F912A
:1055C0000895CF93DF9380914C0390914D03892BE5
:1055D00051F10E94EF15C1E0D0E002C0CC0FDD1FF9
:1055E0008A95E2F78091600390916103892B11F411
:1055F000D05C07C00E94EF15882311F0DF5B01C06B
:10560000DB5B0E94EF15811106C080916A039091C7
:105610006B03892B59F480914A0390914B03892B9A
:1056200039F0D05805C0C0E0D0E402C0DE5FF3CF4F
:10563000CE01DF91CF910895CF93DF93EC0183E00A
:105640006C34780719F40E94711713C083E06E342C
:10565000780719F40E944C170CC083E06235780774
:1056600019F40E94321705C06455734011F40E946A
:105670003F170E946A160E94E12ABC01CE01DF9109
:10568000CF910C94BC281F93CF93DF93CDB7DEB797
:10569000E9970FB6F894DEBF0FBECDBF60E070E0B3
:1056A000CE0189960E94C32C8FEF8AAB86E990E0E9
:1056B0009AA789A78AEB93E09DAB8CAB8FEF9FE70E
:1056C0009FAB8EAB8CE19BE299AF88AF18E20E9452
:1056D000E12ABC01CE0189960E94BC2860E0CE017F
:1056E00089960E946A2A87FD1FC0ECE4F3E0DE0180
:1056F0001196812F01900D928A95E1F7CE0189963E
:105700000E947B2981110AC0FE013196ACE4B3E00E
:10571000812F01900D928A95E1F7D9CF83E00E9405
:10572000B0320E946A16D3CFE9960FB6F894DEBF66
:105730000FBECDBFDF91CF911F910895DC01179669
:10574000ED91FC911897E60FF11D649188E395E0C7
:105750000C941F350F931F93CF93DF93EC018B01B4
:1057600060E0F801E60FF11DE4916F5FE930C9F7E1
:10577000CE010E94CB2984EA90E099838883188720
:105780000F83DF91CF911F910F9108950E94EF1524
:1057900020914C0330914D03232B59F0833061F05D
:1057A000823069F0882371F0853079F08DE294E0E1
:1057B000089581E594E0089586E394E0089588E4EF
:1057C00094E008958FE394E0089584E294E00895CE
:1057D0001F93CF93DF93182F0E9413170E94C62B9D
:1057E000EC0160E0CE010E946A2A87FD12C0EF81C1
:1057F000F885E80FF11D87FDFA958491893031F421
:105800000E94432B812F0E942217E8CF0E944A1446
:10581000E8CFDF91CF911F91089569E675E081E5AA
:1058200094E00E94AA2B60E675E088E494E00E9470
:10583000AA2B64E575E08FE394E00E94AA2B69E54A
:1058400075E086E394E00E94AA2B6EE475E08DE299
:1058500094E00E94AA2B6CE475E084E294E00C943E
:10586000AA2B80913403909135030397029718F087
:105870008EEF9FE702C08FEF9FE7209144033091A6
:105880004503232B09F402970895CF93DF93EC018E
:105890000E94312CBC01CE01DF91CF910C94BC2829
:1058A0001F93CF93DF93CDB7DEB7AB970FB6F894C6
:1058B000DEBF0FBECDBF60E070E0CE014B960E9410
:1058C000C32C8FEF8CA386E990E09C8F8B8F8AE6A8
:1058D00095E09FA38EA38FEF9FE799A788A785E404
:1058E0009CE29BA78AA71AE10E94312CBC01CE0141
:1058F0004B960E94BC2860E0CE014B960E946A2A1B
:1059000087FD30C0682FCE014B960E948B28892BD3
:1059100041F482E393E00E94A51483E00E94B03238
:10592000E3CFE2E3F3E0DE011196812F01900D92C7
:105930008A95E1F7CE014B960E947B2981110AC01E
:10594000FE013196A2E3B3E0812F01900D928A957A
:10595000E1F703C083E00E94B03282E393E00E944B
:10596000B114C2CF0E949A14AB960FB6F894DEBF62
:105970000FBECDBFDF91CF911F910895FC018781AC
:1059800090850C941F350F931F93CF93DF93EC01F9
:105990008B01CB010E94B914682FCE010E94CB2944
:1059A0008AEA90E09983888318870F83DF91CF91EB
:1059B0001F910F910895613011F40C94CF180C943D
:1059C0000320CF93DF93D82FC62F8FE18D0F0E9436
:1059D000EC0E882351F06C2F8D2F0E94DB2C4C2F66
:1059E00066E0DF91CF910C948D368AE396E0DF91EB
:1059F000CF910C9407350F931F93CF93DF93D82F3C
:105A0000062F0E94B0340E949718811108C083E0CD
:105A100090E00E94B919811108C08DE609C08091FB
:105A20007903811104C082E603C080E201C082E4F0
:105A300090919303911102C00E94BC348091930312
:105A4000882349F110E0C1E090919503191700F502
:105A5000212F30E080919403992787FD9095281796
:105A6000390741F0809193038C2331F080915D04DC
:105A700080FD04C080E003C081E001C082E00E949C
:105A8000BC34C03811F0CC0F01C0C0E01F5FDCCFC8
:105A900088E0891B01C087E00E94433511E01D0F9B
:105AA000812F0E944A368AE30E94BC34602F8D2FDA
:105AB0000E94E12C0E944A350E94B4341630C8F48A
:105AC000C2E0CD0F8C2F0E944A368AE30E94BC347C
:105AD000602F812F0E94E12CC63059F083E08D0F9A
